{
  "contractName": "Wood_contract",
  "abi": [
    {
      "inputs": [],
      "payable": false,
      "stateMutability": "nonpayable",
      "type": "constructor"
    },
    {
      "constant": false,
      "inputs": [
        {
          "name": "source_name",
          "type": "string"
        },
        {
          "name": "w_type",
          "type": "string"
        },
        {
          "name": "w_qty",
          "type": "string"
        },
        {
          "name": "manf_id",
          "type": "address"
        },
        {
          "name": "manf_name",
          "type": "string"
        }
      ],
      "name": "add_owner_info",
      "outputs": [],
      "payable": false,
      "stateMutability": "nonpayable",
      "type": "function"
    },
    {
      "constant": false,
      "inputs": [
        {
          "name": "d_id",
          "type": "address"
        },
        {
          "name": "d_name",
          "type": "string"
        },
        {
          "name": "p_name",
          "type": "string"
        },
        {
          "name": "p_qty",
          "type": "string"
        }
      ],
      "name": "add_manf_info",
      "outputs": [],
      "payable": false,
      "stateMutability": "nonpayable",
      "type": "function"
    },
    {
      "constant": false,
      "inputs": [
        {
          "name": "c_name",
          "type": "string"
        },
        {
          "name": "s_qty",
          "type": "string"
        }
      ],
      "name": "add_dist_info",
      "outputs": [],
      "payable": false,
      "stateMutability": "nonpayable",
      "type": "function"
    },
    {
      "constant": true,
      "inputs": [],
      "name": "get_contract",
      "outputs": [
        {
          "name": "t_s_id",
          "type": "address"
        },
        {
          "name": "t_s_name",
          "type": "string"
        },
        {
          "name": "t_wood_type",
          "type": "string"
        },
        {
          "name": "t_man_id",
          "type": "address"
        },
        {
          "name": "t_man_name",
          "type": "string"
        },
        {
          "name": "t_product_name",
          "type": "string"
        },
        {
          "name": "t_cust_name",
          "type": "string"
        }
      ],
      "payable": false,
      "stateMutability": "view",
      "type": "function"
    }
  ],
  "bytecode": "0x608060405234801561001057600080fd5b50336000806101000a81548173ffffffffffffffffffffffffffffffffffffffff021916908373ffffffffffffffffffffffffffffffffffffffff160217905550610ff6806100606000396000f3fe608060405260043610610062576000357c0100000000000000000000000000000000000000000000000000000000900463ffffffff1680635855554014610067578063c234deb91461030d578063e1018de91461046c578063e64dc20c14610719575b600080fd5b34801561007357600080fd5b5061007c61092f565b604051808873ffffffffffffffffffffffffffffffffffffffff1673ffffffffffffffffffffffffffffffffffffffff16815260200180602001806020018773ffffffffffffffffffffffffffffffffffffffff1673ffffffffffffffffffffffffffffffffffffffff16815260200180602001806020018060200186810386528c818151815260200191508051906020019080838360005b83811015610130578082015181840152602081019050610115565b50505050905090810190601f16801561015d5780820380516001836020036101000a031916815260200191505b5086810385528b818151815260200191508051906020019080838360005b8381101561019657808201518184015260208101905061017b565b50505050905090810190601f1680156101c35780820380516001836020036101000a031916815260200191505b50868103845289818151815260200191508051906020019080838360005b838110156101fc5780820151818401526020810190506101e1565b50505050905090810190601f1680156102295780820380516001836020036101000a031916815260200191505b50868103835288818151815260200191508051906020019080838360005b83811015610262578082015181840152602081019050610247565b50505050905090810190601f16801561028f5780820380516001836020036101000a031916815260200191505b50868103825287818151815260200191508051906020019080838360005b838110156102c85780820151818401526020810190506102ad565b50505050905090810190601f1680156102f55780820380516001836020036101000a031916815260200191505b509c5050505050505050505050505060405180910390f35b34801561031957600080fd5b5061046a6004803603604081101561033057600080fd5b810190808035906020019064010000000081111561034d57600080fd5b82018360208201111561035f57600080fd5b8035906020019184600183028401116401000000008311171561038157600080fd5b91908080601f016020809104026020016040519081016040528093929190818152602001838380828437600081840152601f19601f820116905080830192505050505050509192919290803590602001906401000000008111156103e457600080fd5b8201836020820111156103f657600080fd5b8035906020019184600183028401116401000000008311171561041857600080fd5b91908080601f016020809104026020016040519081016040528093929190818152602001838380828437600081840152601f19601f820116905080830192505050505050509192919290505050610cad565b005b34801561047857600080fd5b50610717600480360360a081101561048f57600080fd5b81019080803590602001906401000000008111156104ac57600080fd5b8201836020820111156104be57600080fd5b803590602001918460018302840111640100000000831117156104e057600080fd5b91908080601f016020809104026020016040519081016040528093929190818152602001838380828437600081840152601f19601f8201169050808301925050505050505091929192908035906020019064010000000081111561054357600080fd5b82018360208201111561055557600080fd5b8035906020019184600183028401116401000000008311171561057757600080fd5b91908080601f016020809104026020016040519081016040528093929190818152602001838380828437600081840152601f19601f820116905080830192505050505050509192919290803590602001906401000000008111156105da57600080fd5b8201836020820111156105ec57600080fd5b8035906020019184600183028401116401000000008311171561060e57600080fd5b91908080601f016020809104026020016040519081016040528093929190818152602001838380828437600081840152601f19601f820116905080830192505050505050509192919290803573ffffffffffffffffffffffffffffffffffffffff1690602001909291908035906020019064010000000081111561069157600080fd5b8201836020820111156106a357600080fd5b803590602001918460018302840111640100000000831117156106c557600080fd5b91908080601f016020809104026020016040519081016040528093929190818152602001838380828437600081840152601f19601f820116905080830192505050505050509192919290505050610d3c565b005b34801561072557600080fd5b5061092d6004803603608081101561073c57600080fd5b81019080803573ffffffffffffffffffffffffffffffffffffffff1690602001909291908035906020019064010000000081111561077957600080fd5b82018360208201111561078b57600080fd5b803590602001918460018302840111640100000000831117156107ad57600080fd5b91908080601f016020809104026020016040519081016040528093929190818152602001838380828437600081840152601f19601f8201169050808301925050505050505091929192908035906020019064010000000081111561081057600080fd5b82018360208201111561082257600080fd5b8035906020019184600183028401116401000000008311171561084457600080fd5b91908080601f016020809104026020016040519081016040528093929190818152602001838380828437600081840152601f19601f820116905080830192505050505050509192919290803590602001906401000000008111156108a757600080fd5b8201836020820111156108b957600080fd5b803590602001918460018302840111640100000000831117156108db57600080fd5b91908080601f016020809104026020016040519081016040528093929190818152602001838380828437600081840152601f19601f820116905080830192505050505050509192919290505050610e3c565b005b6000606080600060608060606000809054906101000a900473ffffffffffffffffffffffffffffffffffffffff1660016002600460009054906101000a900473ffffffffffffffffffffffffffffffffffffffff1660056006600a858054600181600116156101000203166002900480601f016020809104026020016040519081016040528092919081815260200182805460018160011615610100020316600290048015610a1f5780601f106109f457610100808354040283529160200191610a1f565b820191906000526020600020905b815481529060010190602001808311610a0257829003601f168201915b50505050509550848054600181600116156101000203166002900480601f016020809104026020016040519081016040528092919081815260200182805460018160011615610100020316600290048015610abb5780601f10610a9057610100808354040283529160200191610abb565b820191906000526020600020905b815481529060010190602001808311610a9e57829003601f168201915b50505050509450828054600181600116156101000203166002900480601f016020809104026020016040519081016040528092919081815260200182805460018160011615610100020316600290048015610b575780601f10610b2c57610100808354040283529160200191610b57565b820191906000526020600020905b815481529060010190602001808311610b3a57829003601f168201915b50505050509250818054600181600116156101000203166002900480601f016020809104026020016040519081016040528092919081815260200182805460018160011615610100020316600290048015610bf35780601f10610bc857610100808354040283529160200191610bf3565b820191906000526020600020905b815481529060010190602001808311610bd657829003601f168201915b50505050509150808054600181600116156101000203166002900480601f016020809104026020016040519081016040528092919081815260200182805460018160011615610100020316600290048015610c8f5780601f10610c6457610100808354040283529160200191610c8f565b820191906000526020600020905b815481529060010190602001808311610c7257829003601f168201915b50505050509050965096509650965096509650965090919293949596565b600860009054906101000a900473ffffffffffffffffffffffffffffffffffffffff1673ffffffffffffffffffffffffffffffffffffffff163373ffffffffffffffffffffffffffffffffffffffff16141515610d0957610d38565b81600a9080519060200190610d1f929190610f25565b5080600b9080519060200190610d36929190610f25565b505b5050565b6000809054906101000a900473ffffffffffffffffffffffffffffffffffffffff1673ffffffffffffffffffffffffffffffffffffffff163373ffffffffffffffffffffffffffffffffffffffff16141515610d9757610e35565b8460019080519060200190610dad929190610f25565b508360029080519060200190610dc4929190610f25565b508260039080519060200190610ddb929190610f25565b5081600460006101000a81548173ffffffffffffffffffffffffffffffffffffffff021916908373ffffffffffffffffffffffffffffffffffffffff1602179055508060059080519060200190610e33929190610f25565b505b5050505050565b600460009054906101000a900473ffffffffffffffffffffffffffffffffffffffff1673ffffffffffffffffffffffffffffffffffffffff163373ffffffffffffffffffffffffffffffffffffffff16141515610e9857610f1f565b83600860006101000a81548173ffffffffffffffffffffffffffffffffffffffff021916908373ffffffffffffffffffffffffffffffffffffffff1602179055508260099080519060200190610eef929190610f25565b508160069080519060200190610f06929190610f25565b508060079080519060200190610f1d929190610f25565b505b50505050565b828054600181600116156101000203166002900490600052602060002090601f016020900481019282601f10610f6657805160ff1916838001178555610f94565b82800160010185558215610f94579182015b82811115610f93578251825591602001919060010190610f78565b5b509050610fa19190610fa5565b5090565b610fc791905b80821115610fc3576000816000905550600101610fab565b5090565b9056fea165627a7a72305820fa9303e17de2e401386f3f0b5a58b18aed2521521eb2b73e23ecf4996742b6c80029",
  "source": "pragma solidity ^0.5.0;\r\n\r\n\r\ncontract Wood_contract{\r\n    address s_id;\r\n    string s_name;\r\n    string wood_type;\r\n    string qty;\r\n\r\n    address man_id;\r\n    string man_name;\r\n\r\n    string product_name;\r\n    string product_qty;\r\n\r\n    address dist_id;\r\n    string dist_name;\r\n\r\n    string cust_name;\r\n    string sold_qty;\r\n\r\n    function add_owner_info (\r\n        string memory source_name,\r\n        string memory w_type,\r\n        string memory w_qty,\r\n        address manf_id,\r\n        string memory manf_name\r\n    ) public{\r\n        if(msg.sender!=s_id){\r\n            return;\r\n        }\r\n        s_name=source_name;\r\n        wood_type=w_type;\r\n        qty=w_qty;\r\n        man_id=manf_id;\r\n        man_name=manf_name;\r\n    }\r\n\r\n    constructor() public{\r\n        s_id=msg.sender;\r\n    }\r\n\r\n    function add_manf_info(\r\n        address d_id,\r\n        string memory d_name,\r\n        string memory p_name,\r\n        string memory p_qty\r\n    )public{\r\n        if(msg.sender!=man_id){\r\n            return ;\r\n        }\r\n        dist_id=d_id;\r\n        dist_name=d_name;\r\n        product_name=p_name;\r\n        product_qty=p_qty;\r\n    }\r\n\r\n    function add_dist_info(\r\n        string memory c_name,\r\n        string memory s_qty\r\n    )public{\r\n        if(msg.sender!=dist_id){\r\n            return;\r\n        }\r\n\r\n        cust_name=c_name;\r\n        sold_qty=s_qty;\r\n    }\r\n\r\n    function get_contract() public view returns(\r\n        address  t_s_id,\r\n        string memory t_s_name,\r\n        string memory t_wood_type,\r\n        address t_man_id,\r\n        string memory t_man_name,\r\n        string memory t_product_name,\r\n        string memory t_cust_name) {\r\n        return(s_id,s_name,wood_type, man_id,man_name,product_name,cust_name);\r\n    }\r\n\r\n\r\n}",
  "sourcePath": "C:/Users/parth/blockchainproject/contracts/wood_contract.sol",
  "compiler": {
    "name": "solc",
    "version": "0.5.0+commit.1d4f565a.Emscripten.clang"
  },
  "schemaVersion": "3.0.2",
  "updatedAt": "2019-02-17T17:35:42.140Z",
  "devdoc": {
    "methods": {}
  },
  "userdoc": {
    "methods": {}
  }
}